:100000000C9446000C9465000C9465000C946500FB
:100010000C9465000C9465000C9465000C946500CC
:100020000C9465000C9465000C9465000C946500BC
:100030000C9465000C940C010C9465000C94650004
:100040000C9465000C9465000C9465000C9465009C
:100050000C9465000C9465000C9465000C9465008C
:100060000C9465000C9465000C9465000C9465007C
:100070000C9465000C9465000C9465000C9465006C
:100080000C9465000C9465000C94650011241FBE4F
:10009000CFEFD0E4DEBFCDBF11E0A0E0B1E0E4E7F8
:1000A000FAE000E00BBF02C007900D92AA33B1073F
:1000B000D9F721E0AAE3B1E001C01D92A635B2074D
:1000C000E1F70E94F5030C9438050C940000CF93DF
:1000D000DF9300D01F92CDB7DEB789837B836A831D
:1000E00089818A3031F48A819B81BC018DE00E9434
:1000F000670080EC90E0FC018081882F90E08072A6
:100100009927892BB1F386EC90E02981FC012083AB
:1001100080E090E00F900F900F90DF91CF910895C5
:10012000CF93DF9300D000D0CDB7DEB769837A8359
:100130008B839C8389819A81AB81BC8180930E01E2
:1001400090930F01A0931001B093110180910E01C3
:1001500090910F01A0911001B091110180933B018A
:1001600090933C01A0933D01B0933E0100000F909D
:100170000F900F900F90DF91CF910895CF93DF9361
:10018000CDB7DEB781E890E02BE0FC01208388E862
:1001900090E02DE730E0FC01318320838FE690E092
:1001A00022E0FC01208384E890E0FC0111821082AF
:1001B00080910E0190910F01A0911001B091110159
:1001C00080933B0190933C01A0933D01B0933E018D
:1001D0008FE590E02FE530E0F90120812068FC01F7
:1001E00020830000DF91CF910895CF93DF93CDB7A7
:1001F000DEB781E890E0FC0110820000DF91CF9132
:100200000895CF93DF93CDB7DEB781E080933A01B5
:100210000000DF91CF9108951F920F9200905F0030
:100220000F92112400905B000F922F933F934F93F6
:100230005F936F937F938F939F93AF93BF93EF934E
:10024000FF93CF93DF93CDB7DEB780913B019091C1
:100250003C01A0913D01B0913E010197A109B10976
:1002600080933B0190933C01A0933D01B0933E01EC
:1002700080913B0190913C01A0913D01B0913E01E4
:10028000892B8A2B8B2B91F40E94010180910E0106
:1002900090910F01A0911001B091110180933B0149
:1002A00090933C01A0933D01B0933E010000DF918B
:1002B000CF91FF91EF91BF91AF919F918F917F91DE
:1002C0006F915F914F913F912F910F9000925B0042
:1002D0000F9000925F000F901F901895CF93DF93BF
:1002E00000D0CDB7DEB79A83898389819A81813026
:1002F0009105D1F08230910519F1892B69F5809132
:100300003F01813029F481E090E09A83898327C0FE
:1003100080913F01823029F482E090E09A838983C2
:100320001EC01A8219821BC080913F01823019F4CD
:100330001A82198214C081E090E09A8389830FC0E9
:1003400080913F01813019F41A82198208C082E03D
:1003500090E09A83898303C01A8219820000898100
:100360009A818130910531F08230910589F0892B95
:10037000E9F02AC081E08093120181E080931A01A4
:1003800081E08093220110922A01109232011CC058
:100390001092120110921A0181E08093220181E0F3
:1003A00080932A0181E0809332010EC010921201E5
:1003B00081E080931A0181E08093220181E08093A3
:1003C0002A0110923201000089819A810F900F90CA
:1003D000DF91CF910895CF93DF9300D0CDB7DEB7F3
:1003E0009A83898389819A8182309105C1F0833013
:1003F00091052CF4009749F0019761F01DC08330FE
:10040000910591F00497A9F017C081E090E09A83DC
:10041000898315C082E090E09A83898310C083E0CD
:1004200090E09A8389830BC084E090E09A8389836B
:1004300006C01A82198203C01A82198200008981BB
:100440009A818230910509F4C1C08330910534F45A
:10045000009761F0019709F461C0C0C18330910534
:1004600009F40CC1049709F461C1B8C18BE290E0B2
:100470002EE1FC01208388E290E020911201422FBE
:1004800020911301222F30E0220F331F422B2091A5
:100490001401222F30E0220F331F220F331F422B73
:1004A00020911501222F30E0220F331F220F331F1E
:1004B000220F331F422B20911601222F30E022956C
:1004C0003295307F3227207F3227422B209117012F
:1004D000222F30E0220F331F22953295307F3227B2
:1004E000207F3227422B20911801222F30E0002458
:1004F000369527950794369527950794322F202D0A
:10050000422B20911901222F30E03695322F2227DD
:1005100037952795242BFC01208360C18BE290E066
:100520002DE1FC01208388E290E020911A01422F06
:1005300020911B01222F30E0220F331F422B2091EC
:100540001C01222F30E0220F331F220F331F422BBA
:1005500020911D01222F30E0220F331F220F331F65
:10056000220F331F422B20911E01222F30E02295B3
:100570003295307F3227207F3227422B20911F0176
:10058000222F30E0220F331F22953295307F322701
:10059000207F3227422B20912001222F30E000249F
:1005A000369527950794369527950794322F202D59
:1005B000422B20912101222F30E03695322F222725
:1005C00037952795242BFC01208308C18BE290E00E
:1005D0002BE1FC01208388E290E020912201422F50
:1005E00020912301222F30E0220F331F422B209134
:1005F0002401222F30E0220F331F220F331F422B02
:1006000020912501222F30E0220F331F220F331FAC
:10061000220F331F422B20912601222F30E02295FA
:100620003295307F3227207F3227422B20912701BD
:10063000222F30E0220F331F22953295307F322750
:10064000207F3227422B20912801222F30E00024E6
:10065000369527950794369527950794322F202DA8
:10066000422B20912901222F30E03695322F22276C
:1006700037952795242BFC012083B0C08BE290E0B6
:1006800027E1FC01208388E290E020912A01422F9B
:1006900020912B01222F30E0220F331F422B20917B
:1006A0002C01222F30E0220F331F220F331F422B49
:1006B00020912D01222F30E0220F331F220F331FF4
:1006C000220F331F422B20912E01222F30E0229542
:1006D0003295307F3227207F3227422B20912F0105
:1006E000222F30E0220F331F22953295307F3227A0
:1006F000207F3227422B20913001222F30E000242E
:10070000369527950794369527950794322F202DF7
:10071000422B20913101222F30E03695322F2227B3
:1007200037952795242BFC01208358C08BE290E05D
:100730002FE0FC01208388E290E020913201422FDB
:1007400020913301222F30E0220F331F422B2091C2
:100750003401222F30E0220F331F220F331F422B90
:1007600020913501222F30E0220F331F220F331F3B
:10077000220F331F422B20913601222F30E0229589
:100780003295307F3227207F3227422B209137014C
:10079000222F30E0220F331F22953295307F3227EF
:1007A000207F3227422B20913801222F30E0002475
:1007B000369527950794369527950794322F202D47
:1007C000422B20913901222F30E03695322F2227FB
:1007D00037952795242BFC012083000089819A817D
:1007E0000F900F90DF91CF9108950F931F93CF93A8
:1007F000DF93CDB7DEB728970FB6F894DEBF0FBEF4
:10080000CDBF87E290E02FEFFC01208388E290E0EB
:10081000FC0110828AE290E02FEFFC0120838BE242
:1008200090E0FC01108281E290E0FC01108282E203
:1008300090E02FEFFC01208380E491E09E838D8384
:100840008BE491E098878F8382E090E09B838A839A
:100850008FEF8C838C818093400184E690E0A0E050
:10086000B0E08093410190934201A0934301B09383
:1008700044018091410190914201A0914301B091C6
:1008800044018093450190934601A0934701B093A2
:1008900048018EE691E090934A01809349018C8152
:1008A00080934B0181E090E0A0E0B0E080934C01A8
:1008B00090934D01A0934E01B0934F0180914C0154
:1008C00090914D01A0914E01B0914F018093500144
:1008D00090935101A0935201B09353018BEE91E09C
:1008E000909355018093540161E070E080E090E0C6
:1008F0000E9490000E94BE00198280E290E0FC01FC
:100900008081809580933F011982A1C08981882FC1
:1009100090E0880F991F9E012F5F3F4F820F931F1A
:100920000496FC0180819181FC01258136814781FB
:1009300050858981882F90E0880F991FBE016F5FD5
:100940007F4F860F971F0496FC0180819181FC01E7
:1009500081819281A381B481281739074A075B07F7
:1009600008F449C08981882F90E0880F991F9E0163
:100970002F5F3F4F820F931F0496FC01008111816E
:100980008981882F90E0880F991F9E012F5F3F4F2C
:10099000820F931F0496FC0180819181FC012185C7
:1009A00032858981882F90E0880F991FAE014F5FB3
:1009B0005F4F840F951F0496FC0180819181FC019B
:1009C0008081082E000C990BF9010995F8018083AC
:1009D0008981882F90E0880F991F9E012F5F3F4FDC
:1009E000820F931F0496FC0180819181FC01158286
:1009F0001682178210868981882F90E0880F991FB0
:100A00009E012F5F3F4F820F931F0496FC012081B0
:100A100031818981882F90E0880F991FAE014F5F47
:100A20005F4F840F951F0496FC0180819181FC012A
:100A300085819681A781B0850196A11DB11DF9011F
:100A400085839683A783B08789818F5F8983898116
:100A5000282F30E08A819B812817390708F456CF68
:100A6000000080913A018823E1F310923A0145CFCA
:040A7000F894FFCF28
:100A74000000000200000000670000000000010008
:100A84000000000000000000000001000000000061
:100A9400000101000000000000010100000000004E
:0A0AA4000001000000000000000047
:00000001FF
