:100000000C944E000C946D000C946D000C946D00DB
:100010000C946D000C946D000C946D000C946D00AC
:100020000C946D000C946D000C946D000C946D009C
:100030000C946D000C9414010C946D000C946D00E4
:100040000C946D000C946D000C946D000C946D007C
:100050000C946D000C946D000C946D000C946D006C
:100060000C946D000C946D000C946D000C946D005C
:100070000C946D000C946D000C946D000C946D004C
:100080000C946D000C946D000C946D000F02F20541
:100090006803AD0449078C08D009D00911241FBE9C
:1000A000CFEFD0E4DEBFCDBF11E0A0E0B1E0E2E0F1
:1000B000F1E200E00BBF02C007900D92AA34B10735
:1000C000D9F721E0AAE4B1E001C01D92A038B2073F
:1000D000E1F70E94100E0C947F100C940000CF9357
:1000E000DF9300D01F92CDB7DEB789837B836A830D
:1000F00089818A3031F48A819B81BC018DE00E9424
:100100006F0080EC90E0FC018081882F90E080728D
:100110009927892BB1F386EC90E02981FC0120839B
:1001200080E090E00F900F900F90DF91CF910895B5
:10013000CF93DF9300D000D0CDB7DEB769837A8349
:100140008B839C8389819A81AB81BC8180930E01D2
:1001500090930F01A0931001B093110180910E01B3
:1001600090910F01A0911001B091110180934B016A
:1001700090934C01A0934D01B0934E0100000F905D
:100180000F900F900F90DF91CF910895CF93DF9351
:10019000CDB7DEB781E890E02BE0FC01208388E852
:1001A00090E02DE730E0FC01318320838FE690E082
:1001B00022E0FC01208384E890E0FC01118210829F
:1001C00080910E0190910F01A0911001B091110149
:1001D00080934B0190934C01A0934D01B0934E013D
:1001E0008FE590E02FE530E0F90120812068FC01E7
:1001F00020830000DF91CF910895CF93DF93CDB797
:10020000DEB781E890E0FC0110820000DF91CF9121
:100210000895CF93DF93CDB7DEB781E080934A0195
:100220000000DF91CF9108951F920F9200905F0020
:100230000F92112400905B000F922F933F934F93E6
:100240005F936F937F938F939F93AF93BF93EF933E
:10025000FF93CF93DF93CDB7DEB780914B019091A1
:100260004C01A0914D01B0914E010197A109B10936
:1002700080934B0190934C01A0934D01B0934E019C
:1002800080914B0190914C01A0914D01B0914E0194
:10029000892B8A2B8B2B91F40E94090180910E01EE
:1002A00090910F01A0911001B091110180934B0129
:1002B00090934C01A0934D01B0934E010000DF914B
:1002C000CF91FF91EF91BF91AF919F918F917F91CE
:1002D0006F915F914F913F912F910F9000925B0032
:1002E0000F9000925F000F901F901895CF93DF93AF
:1002F00000D0CDB7DEB79A83898389819A81813016
:100300009105D1F08230910519F1892B69F5809121
:100310004F01813029F481E090E09A83898327C0DE
:1003200080914F01823029F482E090E09A838983A2
:100330001EC01A8219821BC080914F01823019F4AD
:100340001A82198214C081E090E09A8389830FC0D9
:1003500080914F01813019F41A82198208C082E01D
:1003600090E09A83898303C01A82198200008981F0
:100370009A818130910531F08230910589F0892B85
:10038000E9F02AC081E08093120181E080931A0194
:1003900081E08093220110922A01109232011CC048
:1003A0001092120110921A0181E08093220181E0E3
:1003B00080932A0181E0809332010EC010921201D5
:1003C00081E080931A0181E08093220181E0809393
:1003D0002A0110923201000089819A810F900F90BA
:1003E000DF91CF910895CF93DF9300D0CDB7DEB7E3
:1003F0009A83898389819A81092E000CAA0BBB0BF1
:1004000040E050E027E030E0841B950B28173907C7
:1004100008F4C3C78A5B9F4FFC010C94B90F20916D
:100420003A0130913B0180913C0190913D0101974F
:10043000220F331F220F331F220F331F820F931FF0
:100440008E5E9E4FFC018081813059F480913A018B
:1004500090913B01892B29F485E090E09A83898370
:1004600036C120913A0130913B0180913C0190913D
:100470003D010197220F331F220F331F220F331F1D
:10048000820F931F8E5E9E4FFC018081813059F454
:1004900080913A0190913B01049729F484E090E027
:1004A0009A83898314C120913A0130913B01809154
:1004B0003C0190913D010197220F331F220F331F02
:1004C000220F331F820F931F8E5E9E4FFC0180818F
:1004D0008130C9F580913A0190913B019C012150F6
:1004E000310980913C0190913D010197220F331F0A
:1004F000220F331F220F331F820F931F8E5E9E4FDA
:10050000FC0180818130F9F480913A0190913B01A6
:100510009C012F5F3F4F80913C0190913D010197DD
:10052000220F331F220F331F220F331F820F931FFF
:100530008E5E9E4FFC018081813029F481E090E045
:100540009A838983C4C020913A0130913B01809104
:100550003C0190913D010197220F331F220F331F61
:10056000220F331F820F931F8E5E9E4FFC018081EE
:100570008130C9F580913A0190913B019C012F5F38
:100580003F4F80913C0190913D010197220F331F15
:10059000220F331F220F331F820F931F8E5E9E4F39
:1005A000FC0180818130F9F480913A0190913B0106
:1005B0009C012E5F3F4F80913C0190913D0101973E
:1005C000220F331F220F331F220F331F820F931F5F
:1005D0008E5E9E4FFC018081813029F484E090E0A2
:1005E0009A83898374C020913A0130913B018091B4
:1005F0003C0190913D010197220F331F220F331FC1
:10060000220F331F820F931F8E5E9E4FFC0180814D
:100610008130C9F580913A0190913B019C012150B4
:10062000310980913C0190913D010197220F331FC8
:10063000220F331F220F331F820F931F8E5E9E4F98
:10064000FC0180818130F9F480913A0190913B0165
:100650009C012250310980913C0190913D0101970C
:10066000220F331F220F331F220F331F820F931FBE
:100670008E5E9E4FFC018081813029F485E090E000
:100680009A83898324C020913A0130913B01809163
:100690003C0190913D010197220F331F220F331F20
:1006A000220F331F820F931F8E5E9E4FFC018081AD
:1006B000882309F077C680913C0190913D01019714
:1006C00009F070C687E090E09A8389836BC66AC69A
:1006D00020913A0130913B0180913C0190913D0184
:1006E0000197220F331F220F331F220F331F820F58
:1006F000931F8E5E9E4FFC018081813059F4809162
:100700003A0190913B01892B29F485E090E09A838E
:10071000898322C180913A0190913B01892B29F470
:1007200083E090E09A8389833FC620913A0130911B
:100730003B0180913C0190913D010197220F331FB5
:10074000220F331F220F331F820F931F8E5E9E4F87
:10075000FC0180818130C9F580913A0190913B0183
:100760009C012150310980913C0190913D010197FC
:10077000220F331F220F331F220F331F820F931FAD
:100780008E5E9E4FFC0180818130F9F480913A01A8
:1007900090913B019C012F5F3F4F80913C019091D4
:1007A0003D010197220F331F220F331F220F331FEA
:1007B000820F931F8E5E9E4FFC018081813029F451
:1007C00081E090E09A838983C7C020913A013091FB
:1007D0003B0180913C0190913D010197220F331F15
:1007E000220F331F220F331F820F931F8E5E9E4FE7
:1007F000FC0180818130C9F580913A0190913B01E3
:100800009C012F5F3F4F80913C0190913D010197EA
:10081000220F331F220F331F220F331F820F931F0C
:100820008E5E9E4FFC0180818130F9F480913A0107
:1008300090913B019C012E5F3F4F80913C01909134
:100840003D010197220F331F220F331F220F331F49
:10085000820F931F8E5E9E4FFC018081813029F4B0
:1008600084E090E09A83898377C020913A013091A7
:100870003B0180913C0190913D010197220F331F74
:10088000220F331F220F331F820F931F8E5E9E4F46
:10089000FC0180818130C9F580913A0190913B0142
:1008A0009C012150310980913C0190913D010197BB
:1008B000220F331F220F331F220F331F820F931F6C
:1008C0008E5E9E4FFC0180818130F9F480913A0167
:1008D00090913B019C012250310980913C01909103
:1008E0003D010197220F331F220F331F220F331FA9
:1008F000820F931F8E5E9E4FFC018081813029F410
:1009000085E090E09A83898327C080913A01909195
:100910003B019C012150310980913C0190913D01A6
:100920000197220F331F220F331F220F331F820F15
:10093000931F8E5E9E4FFC018081882309F034C591
:1009400080913C0190913D01019709F02DC587E010
:1009500090E09A83898328C527C520913A01309178
:100960003B0180913C0190913D010197220F331F83
:10097000220F331F220F331F820F931F8E5E9E4F55
:10098000FC018081813059F480913A0190913B01C2
:10099000049729F484E090E09A83898322C18091AE
:1009A0003A0190913B01049729F482E090E09A8308
:1009B0008983FCC420913A0130913B0180913C0134
:1009C00090913D010197220F331F220F331F220FF9
:1009D000331F820F931F8E5E9E4FFC0180818130FA
:1009E000C9F580913A0190913B019C012150310958
:1009F00080913C0190913D010197220F331F220FFE
:100A0000331F220F331F820F931F8E5E9E4FFC01F8
:100A100080818130F9F480913A0190913B019C01F1
:100A20002F5F3F4F80913C0190913D010197220F34
:100A3000331F220F331F220F331F820F931F8E5E2F
:100A40009E4FFC018081813029F481E090E09A83FF
:100A50008983C7C020913A0130913B0180913C01CC
:100A600090913D010197220F331F220F331F220F58
:100A7000331F820F931F8E5E9E4FFC018081813059
:100A8000C9F580913A0190913B019C012F5F3F4F46
:100A900080913C0190913D010197220F331F220F5D
:100AA000331F220F331F820F931F8E5E9E4FFC0158
:100AB00080818130F9F480913A0190913B019C0151
:100AC0002E5F3F4F80913C0190913D010197220F95
:100AD000331F220F331F220F331F820F931F8E5E8F
:100AE0009E4FFC018081813029F484E090E09A835C
:100AF000898377C020913A0130913B0180913C017C
:100B000090913D010197220F331F220F331F220FB7
:100B1000331F820F931F8E5E9E4FFC0180818130B8
:100B2000C9F580913A0190913B019C012150310916
:100B300080913C0190913D010197220F331F220FBC
:100B4000331F220F331F820F931F8E5E9E4FFC01B7
:100B500080818130F9F480913A0190913B019C01B0
:100B60002250310980913C0190913D010197220F63
:100B7000331F220F331F220F331F820F931F8E5EEE
:100B80009E4FFC018081813029F485E090E09A83BA
:100B9000898327C080913A0190913B019C012F5F8E
:100BA0003F4F80913C0190913D010197220F331FEF
:100BB000220F331F220F331F820F931F8E5E9E4F13
:100BC000FC018081882309F0F1C380913C01909160
:100BD0003D01019709F0EAC387E090E09A83898399
:100BE000E5C3E4C320913A0130913B0180913C017F
:100BF00090913D010196220F331F220F331F220FC8
:100C0000331F820F931F8E5E9E4FFC0180818130C7
:100C100059F480913A0190913B01892B29F483E0AA
:100C200090E09A83898334C120913A0130913B014D
:100C300080913C0190913D010196220F331F220FBC
:100C4000331F220F331F820F931F8E5E9E4FFC01B6
:100C50008081813059F480913A0190913B01049751
:100C600029F482E090E09A83898312C120913A01AD
:100C700030913B0180913C0190913D010196220F02
:100C8000331F220F331F220F331F820F931F8E5EDD
:100C90009E4FFC0180818130B9F580913A0190919D
:100CA0003B019C012150310980913C0190913D0113
:100CB0000196220F331F220F331F220F331F820F83
:100CC000931F8E5E9E4FFC0180818130E9F48091FC
:100CD0003A0190913B019C012F5F3F4F80913C0175
:100CE00090913D010196220F331F220F331F220FD7
:100CF000331F820F931F8E5E9E4FFC0180818130D7
:100D000019F41A821982C4C020913A0130913B0132
:100D100080913C0190913D010196220F331F220FDB
:100D2000331F220F331F820F931F8E5E9E4FFC01D5
:100D300080818130C9F580913A0190913B019C01FD
:100D40002F5F3F4F80913C0190913D010196220F12
:100D5000331F220F331F220F331F820F931F8E5E0C
:100D60009E4FFC0180818130F9F480913A0190918D
:100D70003B019C012E5F3F4F80913C0190913D01D2
:100D80000196220F331F220F331F220F331F820FB2
:100D9000931F8E5E9E4FFC018081813029F482E09A
:100DA00090E09A83898374C020913A0130913B018D
:100DB00080913C0190913D010196220F331F220F3B
:100DC000331F220F331F820F931F8E5E9E4FFC0135
:100DD00080818130C9F580913A0190913B019C015D
:100DE0002150310980913C0190913D010196220FE3
:100DF000331F220F331F220F331F820F931F8E5E6C
:100E00009E4FFC0180818130F9F480913A019091EC
:100E10003B019C012250310980913C0190913D01A0
:100E20000196220F331F220F331F220F331F820F11
:100E3000931F8E5E9E4FFC018081813029F483E0F8
:100E400090E09A83898324C020913A0130913B013C
:100E500080913C0190913D010196220F331F220F9A
:100E6000331F220F331F820F931F8E5E9E4FFC0194
:100E70008081882309F09CC280913C0190913D01C2
:100E8000069709F095C286E090E09A83898390C224
:100E90008FC220913A0130913B0180913C019091A9
:100EA0003D010196220F331F220F331F220F331FE4
:100EB000820F931F8E5E9E4FFC018081813059F41A
:100EC00080913A0190913B01892B29F483E090E0D5
:100ED0009A83898320C180913A0190913B01892BAB
:100EE00029F485E090E09A83898364C220913A01D5
:100EF00030913B0180913C0190913D010196220F80
:100F0000331F220F331F220F331F820F931F8E5E5A
:100F10009E4FFC0180818130B9F580913A0190911A
:100F20003B019C012150310980913C0190913D0190
:100F30000196220F331F220F331F220F331F820F00
:100F4000931F8E5E9E4FFC0180818130E9F4809179
:100F50003A0190913B019C012F5F3F4F80913C01F2
:100F600090913D010196220F331F220F331F220F54
:100F7000331F820F931F8E5E9E4FFC018081813054
:100F800019F41A821982C7C020913A0130913B01AD
:100F900080913C0190913D010196220F331F220F59
:100FA000331F220F331F820F931F8E5E9E4FFC0153
:100FB00080818130C9F580913A0190913B019C017B
:100FC0002F5F3F4F80913C0190913D010196220F90
:100FD000331F220F331F220F331F820F931F8E5E8A
:100FE0009E4FFC0180818130F9F480913A0190910B
:100FF0003B019C012E5F3F4F80913C0190913D0150
:101000000196220F331F220F331F220F331F820F2F
:10101000931F8E5E9E4FFC018081813029F482E017
:1010200090E09A83898377C020913A0130913B0107
:1010300080913C0190913D010196220F331F220FB8
:10104000331F220F331F820F931F8E5E9E4FFC01B2
:1010500080818130C9F580913A0190913B019C01DA
:101060002150310980913C0190913D010196220F60
:10107000331F220F331F220F331F820F931F8E5EE9
:101080009E4FFC0180818130F9F480913A0190916A
:101090003B019C012250310980913C0190913D011E
:1010A0000196220F331F220F331F220F331F820F8F
:1010B000931F8E5E9E4FFC018081813029F483E076
:1010C00090E09A83898327C080913A0190913B01F7
:1010D0009C012150310980913C0190913D01019684
:1010E000220F331F220F331F220F331F820F931F34
:1010F0008E5E9E4FFC018081882309F05BC1809148
:101100003C0190913D01069709F054C187E090E0C1
:101110009A8389834FC14EC120913A0130913B019E
:1011200080913C0190913D010196220F331F220FC7
:10113000331F220F331F820F931F8E5E9E4FFC01C1
:101140008081813059F480913A0190913B0104975C
:1011500029F482E090E09A8389831EC180913A014C
:1011600090913B01049729F484E090E09A8389836D
:1011700023C120913A0130913B0180913C01909133
:101180003D010196220F331F220F331F220F331F01
:10119000820F931F8E5E9E4FFC0180818130B9F5D6
:1011A00080913A0190913B019C012150310980913D
:1011B0003C0190913D010196220F331F220F331FF6
:1011C000220F331F820F931F8E5E9E4FFC01808182
:1011D0008130E9F480913A0190913B019C012F5FAD
:1011E0003F4F80913C0190913D010196220F331FAA
:1011F000220F331F220F331F820F931F8E5E9E4FCD
:10120000FC018081813019F41A821982C5C02091B5
:101210003A0130913B0180913C0190913D01019652
:10122000220F331F220F331F220F331F820F931FF2
:101230008E5E9E4FFC0180818130C9F580913A011C
:1012400090913B019C012F5F3F4F80913C01909119
:101250003D010196220F331F220F331F220F331F30
:10126000820F931F8E5E9E4FFC0180818130F9F4C6
:1012700080913A0190913B019C012E5F3F4F8091FC
:101280003C0190913D010196220F331F220F331F25
:10129000220F331F820F931F8E5E9E4FFC018081B1
:1012A000813029F482E090E09A83898375C020918F
:1012B0003A0130913B0180913C0190913D010196B2
:1012C000220F331F220F331F220F331F820F931F52
:1012D0008E5E9E4FFC0180818130C9F580913A017C
:1012E00090913B019C012150310980913C019091EA
:1012F0003D010196220F331F220F331F220F331F90
:10130000820F931F8E5E9E4FFC0180818130F9F425
:1013100080913A0190913B019C01225031098091CA
:101320003C0190913D010196220F331F220F331F84
:10133000220F331F820F931F8E5E9E4FFC01808110
:10134000813029F483E090E09A83898325C08091DD
:101350003A0190913B019C012F5F3F4F80913C01EE
:1013600090913D010197220F331F220F331F220F4F
:10137000331F820F931F8E5E9E4FFC018081882356
:10138000D9F480913C0190913D010897A9F487E040
:1013900090E09A83898310C00FC01A8219820DC011
:1013A00000000BC0000009C0000007C0000005C01D
:1013B000000003C0000001C0000089819A818230D2
:1013C000910509F448C08330910534F4009781F009
:1013D000019709F4B8C062C18430910509F4E6C0F0
:1013E000843091050CF473C0059709F41BC156C1F4
:1013F00020913A0130913B0180913C0190913D0157
:10140000220F331F220F331F220F331F820F931F10
:101410008E5E9E4FFC01108280913C0190913D01B7
:10142000019790933D0180933C0120913A013091C6
:101430003B0180913C0190913D01220F331F220F0F
:10144000331F220F331F820F931F8E5E9E4F21E0AA
:10145000FC01208323C120913A0130913B0180910E
:101460003C0190913D01220F331F220F331F220FA9
:10147000331F820F931F8E5E9E4FFC01108280915E
:101480003A0190913B01019790933B0180933A017F
:1014900080913C0190913D01019790933D01809393
:1014A0003C0120913A0130913B0180913C019091A7
:1014B0003D01220F331F220F331F220F331F820FD4
:1014C000931F8E5E9E4F21E0FC012083E7C0209198
:1014D0003A0130913B0180913C0190913D01220FF6
:1014E000331F220F331F220F331F820F931F8E5E75
:1014F0009E4FFC01108280913A0190913B01019630
:1015000090933B0180933A0180913C0190913D0181
:10151000019790933D0180933C0120913A013091D5
:101520003B0180913C0190913D01220F331F220F1E
:10153000331F220F331F820F931F8E5E9E4F21E0B9
:10154000FC012083ABC020913A0130913B01809196
:101550003C0190913D01220F331F220F331F220FB8
:10156000331F820F931F8E5E9E4FFC01108280916D
:101570003C0190913D01019690933D0180933C0187
:1015800020913A0130913B0180913C0190913D01C5
:10159000220F331F220F331F220F331F820F931F7F
:1015A0008E5E9E4F21E0FC01208378C020913A019D
:1015B00030913B0180913C0190913D01220F331FFE
:1015C000220F331F220F331F820F931F8E5E9E4FF9
:1015D000FC01108280913A0190913B010197909318
:1015E0003B0180933A0180913C0190913D0101962D
:1015F00090933D0180933C0120913A0130913B0151
:1016000080913C0190913D01220F331F220F331F27
:10161000220F331F820F931F8E5E9E4F21E0FC012D
:1016200020833CC020913A0130913B0180913C01E4
:1016300090913D01220F331F220F331F220F331FC2
:10164000820F931F8E5E9E4FFC01108280913A01A3
:1016500090913B01019690933B0180933A018091D8
:101660003C0190913D01019690933D0180933C0196
:1016700020913A0130913B0180913C0190913D01D4
:10168000220F331F220F331F220F331F820F931F8E
:101690008E5E9E4F21E0FC012083000089819A81AB
:1016A0000F900F90DF91CF910895CF93DF9300D0EB
:1016B000CDB7DEB79A83898389819A81813091057C
:1016C00069F18230910509F443C0892B09F05AC0B1
:1016D0000E940D1081709078992324F401978E6FE9
:1016E0009F6F01960197B9F480913A0190913B0167
:1016F000039728F082E090E09A83898346C0809126
:101700003A0190913B01029708F03FC081E090E0E0
:101710009A8389833AC01A82198237C00E940D10B9
:1017200081709078992324F401978E6F9F6F0196B2
:10173000019749F480913A0190913B01039738F168
:101740001A82198224C081E090E09A8389831FC0A5
:101750000E940D1081709078992324F401978E6F68
:101760009F6F0196019749F480913A0190913B0156
:10177000029778F41A8219820CC082E090E09A8372
:10178000898307C01A82198205C0000003C00000C7
:1017900001C0000089819A818130910531F0823049
:1017A000910589F0892BE9F02AC081E08093190125
:1017B00081E08093210181E0809329011092310121
:1017C000109239011CC0109219011092210181E080
:1017D0008093290181E08093310181E08093390178
:1017E0000EC01092190181E08093210181E0809365
:1017F000290181E080933101109239010000898133
:101800009A810F900F90DF91CF910895CF93DF933E
:1018100000D0CDB7DEB79A83898389819A818230DF
:101820009105C1F0833091052CF4009749F00197A0
:1018300061F01DC08330910591F00497A9F017C0A5
:1018400081E090E09A83898315C082E090E09A83DA
:10185000898310C083E090E09A8389830BC084E081
:1018600090E09A83898306C01A82198203C01A8283
:101870001982000089819A818230910509F4C1C0E2
:101880008330910534F4009761F0019709F461C049
:10189000C0C18330910509F40CC1049709F461C1FA
:1018A000B8C18BE290E02EE1FC01208388E290E059
:1018B00020911201422F20911301222F30E0220F9C
:1018C000331F422B20911401222F30E0220F331FAF
:1018D000220F331F422B20911501222F30E0220FBF
:1018E000331F220F331F220F331F422B209116016B
:1018F000222F30E022953295307F3227207F322709
:10190000422B20911701222F30E0220F331F229506
:101910003295307F3227207F3227422B20911801C9
:10192000222F30E000243695279507943695279589
:101930000794322F202D422B20911901222F30E0C5
:101940003695322F222737952795242BFC012083AB
:1019500060C18BE290E02DE1FC01208388E290E001
:1019600020911A01422F20911B01222F30E0220FDB
:10197000331F422B20911C01222F30E0220F331FF6
:10198000220F331F422B20911D01222F30E0220F06
:10199000331F220F331F220F331F422B20911E01B2
:1019A000222F30E022953295307F3227207F322758
:1019B000422B20911F01222F30E0220F331F22954E
:1019C0003295307F3227207F3227422B2091200111
:1019D000222F30E0002436952795079436952795D9
:1019E0000794322F202D422B20912101222F30E00D
:1019F0003695322F222737952795242BFC012083FB
:101A000008C18BE290E02BE1FC01208388E290E0AA
:101A100020912201422F20912301222F30E0220F1A
:101A2000331F422B20912401222F30E0220F331F3D
:101A3000220F331F422B20912501222F30E0220F4D
:101A4000331F220F331F220F331F422B20912601F9
:101A5000222F30E022953295307F3227207F3227A7
:101A6000422B20912701222F30E0220F331F229595
:101A70003295307F3227207F3227422B2091280158
:101A8000222F30E000243695279507943695279528
:101A90000794322F202D422B20912901222F30E054
:101AA0003695322F222737952795242BFC0120834A
:101AB000B0C08BE290E027E1FC01208388E290E057
:101AC00020912A01422F20912B01222F30E0220F5A
:101AD000331F422B20912C01222F30E0220F331F85
:101AE000220F331F422B20912D01222F30E0220F95
:101AF000331F220F331F220F331F422B20912E0141
:101B0000222F30E022953295307F3227207F3227F6
:101B1000422B20912F01222F30E0220F331F2295DC
:101B20003295307F3227207F3227422B209130019F
:101B3000222F30E000243695279507943695279577
:101B40000794322F202D422B20913101222F30E09B
:101B50003695322F222737952795242BFC01208399
:101B600058C08BE290E02FE0FC01208388E290E0F7
:101B700020913201422F20913301222F30E0220F99
:101B8000331F422B20913401222F30E0220F331FCC
:101B9000220F331F422B20913501222F30E0220FDC
:101BA000331F220F331F220F331F422B2091360188
:101BB000222F30E022953295307F3227207F322746
:101BC000422B20913701222F30E0220F331F229524
:101BD0003295307F3227207F3227422B20913801E7
:101BE000222F30E0002436952795079436952795C7
:101BF0000794322F202D422B20913901222F30E0E3
:101C00003695322F222737952795242BFC012083E8
:101C1000000089819A810F900F90DF91CF910895F4
:101C20000F931F93CF93DF93CDB7DEB72C970FB6EB
:101C3000F894DEBF0FBECDBF87E290E02FEFFC012E
:101C4000208388E290E0FC0110828AE290E02FEF8E
:101C5000FC0120838BE290E0FC01108281E290E0A5
:101C6000FC01108282E290E02FEFFC01208388E0EB
:101C7000E2E4F1E0DE01159601900D928A95E1F71C
:101C800084E090E09B838A838FEF8C838C818093A8
:101C9000500184E690E0A0E0B0E080935101909381
:101CA0005201A0935301B09354018091510190913E
:101CB0005201A0915301B09154018093550190932A
:101CC0005601A0935701B093580186E791E0909395
:101CD0005A01809359018C8180935B018CEB92E0D7
:101CE000A0E0B0E080935C0190935D01A0935E0161
:101CF000B0935F0180915C0190915D01A0915E01C4
:101D0000B0915F018093600190936101A0936201A3
:101D1000B093630183EF91E0909365018093640138
:101D20008C81809366018CEB92E0A0E0B0E0809320
:101D3000670190936801A0936901B0936A01809153
:101D4000670190916801A0916901B0916A01809347
:101D50006B0190936C01A0936D01B0936E0185E5CA
:101D60009BE09093700180936F018C81809371014F
:101D700081E090E0A0E0B0E0809372019093730165
:101D8000A0937401B09375018091720190917301D9
:101D9000A0917401B09175018093760190937701C1
:101DA000A0937801B093790186E09CE090937B0149
:101DB00080937A0161E070E080E090E00E949800FA
:101DC0000E94C60080E090E00E94A60FDC01CB01DB
:101DD0000E941110198280E290E0FC0180818095C0
:101DE00080934F011982A1C08981882F90E0880FCC
:101DF000991F9E012F5F3F4F820F931F0496FC0196
:101E000080819181FC0125813681478150858981BE
:101E1000882F90E0880F991FBE016F5F7F4F860F5C
:101E2000971F0496FC0180819181FC018181928140
:101E3000A381B481281739074A075B0708F449C012
:101E40008981882F90E0880F991F9E012F5F3F4F57
:101E5000820F931F0496FC01008111818981882FD4
:101E600090E0880F991F9E012F5F3F4F820F931FB5
:101E70000496FC0180819181FC0121853285898154
:101E8000882F90E0880F991FAE014F5F5F4F840F3E
:101E9000951F0496FC0180819181FC018081082EB0
:101EA000000C990BF9010995F80180838981882F2D
:101EB00090E0880F991F9E012F5F3F4F820F931F65
:101EC0000496FC0180819181FC01158216821782A3
:101ED00010868981882F90E0880F991F9E012F5FBF
:101EE0003F4F820F931F0496FC012081318189812D
:101EF000882F90E0880F991FAE014F5F5F4F840FCE
:101F0000951F0496FC0180819181FC018581968159
:101F1000A781B0850196A11DB11DF9018583968326
:101F2000A783B08789818F5F89838981282F30E0DB
:101F30008A819B812817390708F456CF00008091C9
:101F40004A018823E1F310924A0145CFFC010FB604
:101F5000F89460917C0170917D0180917E01909157
:101F60007F010FBE309721F060837183828393835A
:101F70000895EE0FFF1F0024001C0BBE0790F69182
:101F8000E02D09948F929F92AF92BF92CF92DF92F1
:101F9000EF92FF92CF93DF93EC01688179818A8180
:101FA0009B81611571058105910521F464E279ED4C
:101FB0008BE597E02DE133EF41E050E00E941C10EB
:101FC00049015A019B01AC01A7EAB1E40E943B1010
:101FD0006B017C01ACEEB4EFA50194010E944910A5
:101FE000DC01CB018C0D9D1DAE1DBF1DB7FF03C0D5
:101FF0000197A109B04888839983AA83BB839F77FF
:10200000DF91CF91FF90EF90DF90CF90BF90AF9096
:102010009F908F9008950C94C20F8EE391E00C94E2
:10202000C20FA0E0B0E080933E0190933F01A093E7
:102030004001B09341010895052E97FB1EF40094D2
:102040000E94331057FD07D00E944E1007FC03D0AA
:102050004EF40C94331050954095309521953F4F98
:102060004F4F5F4F089590958095709561957F4F84
:102070008F4F9F4F08950E947010A59F900DB49FA1
:10208000900DA49F800D911D11240895B7FF0C940D
:102090003B100E943B10821B930B0895A1E21A2E65
:1020A000AA1BBB1BFD010DC0AA1FBB1FEE1FFF1FFC
:1020B000A217B307E407F50720F0A21BB30BE40B4C
:1020C000F50B661F771F881F991F1A9469F7609593
:1020D0007095809590959B01AC01BD01CF0108954D
:1020E000A29FB001B39FC001A39F700D811D112459
:1020F000911DB29F700D811D1124911D0895F894BA
:02210000FFCF0F
:1021020000000002000000006F000000000001005B
:1021120000000000000000000000010000000000BC
:1021220000010100000000010001010000000000A8
:102132000001000000000000000002000500010094
:0A214200000050015B01660171010D
:00000001FF
