:100000000C945E000C947D000C947D000C947D009B
:100010000C947D000C947D000C947D000C947D006C
:100020000C947D000C947D000C947D000C947D005C
:100030000C947D000C9424010C947D000C947D00A4
:100040000C947D000C947D000C947D000C947D003C
:100050000C947D000C947D000C947D000C947D002C
:100060000C947D000C947D000C947D000C947D001C
:100070000C947D000C947D000C947D000C947D000C
:100080000C947D000C947D000C947D006203700341
:1000900014080C059106AB092E0BB10CED0C4C0DA0
:1000A000F70D7F0DBB0D2A0E660EA20ECE0E260F8B
:1000B000440F750F930FB90FCF0FF40F11241FBE0C
:1000C000CFEFD0E4DEBFCDBF11E0A0E0B1E0EAEDBC
:1000D000F1E300E00BBF02C007900D92A637B10715
:1000E000D9F721E0A6E7B1E001C01D92A33EB20717
:1000F000E1F70E944D160C94EB180C940000CF937E
:10010000DF9300D01F92CDB7DEB789837B836A83EC
:1001100089818A3031F48A819B81BC018DE00E9403
:100120007F0080EC90E0FC018081882F90E080725D
:100130009927892BB1F386EC90E02981FC0120837B
:1001400080E090E00F900F900F90DF91CF91089595
:10015000CF93DF9300D000D0CDB7DEB769837A8329
:100160008B839C8389819A81AB81BC8180930E01B2
:1001700090930F01A0931001B093110180910E0193
:1001800090910F01A0911001B0911101809377011E
:1001900090937801A0937901B0937A0100000F90B9
:1001A0000F900F900F90DF91CF910895CF93DF9331
:1001B000CDB7DEB781E890E02BE0FC01208388E832
:1001C00090E02DE730E0FC01318320838FE690E062
:1001D00022E0FC01208384E890E0FC01118210827F
:1001E00080910E0190910F01A0911001B091110129
:1001F0008093770190937801A0937901B0937A016D
:100200008FE590E02FE530E0F90120812068FC01C6
:1002100020830000DF91CF910895CF93DF93CDB776
:10022000DEB781E890E0FC0110820000DF91CF9101
:100230000895CF93DF93CDB7DEB781E08093760149
:100240000000DF91CF9108951F920F9200905F0000
:100250000F92112400905B000F922F933F934F93C6
:100260005F936F937F938F939F93AF93BF93EF931E
:10027000FF93CF93DF93CDB7DEB780917701909155
:100280007801A0917901B0917A010197A109B10992
:100290008093770190937801A0937901B0937A01CC
:1002A0008091770190917801A0917901B0917A01C4
:1002B000892B8A2B8B2B91F40E94190180910E01BE
:1002C00090910F01A0911001B091110180937701DD
:1002D00090937801A0937901B0937A010000DF91A7
:1002E000CF91FF91EF91BF91AF919F918F917F91AE
:1002F0006F915F914F913F912F910F9000925B0012
:100300000F9000925F000F901F901895CF93DF938E
:1003100000D01F92CDB7DEB789836A834B838B8170
:10032000882371F08A81282F30E081E090E002C0BC
:10033000880F991F2A95E2F7982F8981892B0EC083
:100340008A81282F30E081E090E002C0880F991F59
:100350002A95E2F7982F9095898189230F900F9025
:100360000F90DF91CF910895CF93DF9300D0CDB759
:10037000DEB789836A838A81282F30E081E090E0AC
:1003800002C0880F991F2A95E2F7982F8981892347
:100390000F900F90DF91CF910895CF93DF93CDB75A
:1003A000DEB785E290E02FEEFC012083000083E2BF
:1003B00090E0FC01808160E00E94B401882311F488
:1003C00081E3B8C083E290E0FC01808161E00E949B
:1003D000B401882311F484E3ADC083E290E0FC0112
:1003E000808162E00E94B401882311F487E3A2C0F7
:1003F00083E290E0FC01808163E00E94B4018823E5
:1004000011F48AE297C085E290E02FEDFC01208391
:10041000000083E290E0FC01808160E00E94B40172
:10042000882311F482E386C083E290E0FC0180819E
:1004300061E00E94B401882311F485E37BC083E26C
:1004400090E0FC01808162E00E94B401882311F4F5
:1004500088E370C083E290E0FC01808163E00E9449
:10046000B401882311F480E365C085E290E02FEBAE
:10047000FC012083000083E290E0FC01808160E0C9
:100480000E94B401882311F483E354C083E290E016
:10049000FC01808161E00E94B401882311F486E3AD
:1004A00049C083E290E0FC01808162E00E94B401D7
:1004B000882311F489E33EC083E290E0FC0180814F
:1004C00063E00E94B401882311F483E233C085E223
:1004D00090E02FE7FC012083000083E290E0FC0124
:1004E000808160E00E94B401882311F481E422C07D
:1004F00083E290E0FC01808161E00E94B4018823E6
:1005000011F482E417C083E290E0FC01808162E094
:100510000E94B401882311F483E40CC083E290E0CC
:10052000FC01808163E00E94B401882311F484E41B
:1005300001C080E0DF91CF910895CF93DF9300D089
:10054000CDB7DEB79A83898389819A8181309105FD
:10055000A9F1823091051CF4892BA1F055C082309D
:10056000910509F43EC0039709F04EC08091A401A3
:10057000813019F41A8219824CC083E090E09A838A
:10058000898347C08091A301833019F41A821982AC
:1005900040C08091A301813029F481E090E09A83EA
:1005A000898337C08091A301823029F482E090E0F2
:1005B0009A8389832EC01A8219822BC08091A3014D
:1005C000833019F41A82198224C08091A3018230E9
:1005D00019F41A8219821DC081E090E09A83898300
:1005E00018C08091A301833019F41A82198211C0B6
:1005F0008091A301813019F41A8219820AC082E025
:1006000090E09A83898305C083E090E09A83898390
:10061000000089819A818130910531F08230910505
:1006200089F0892BE9F02AC081E08093120181E0F2
:1006300080931A0181E08093220110922A01109286
:1006400032011CC01092120110921A0181E08093B5
:10065000220181E080932A0181E0809332010EC063
:100660001092120181E080931A0181E080932201AF
:1006700081E080932A0110923201000089819A81E1
:100680000F900F90DF91CF910895CF93DF9300D01B
:10069000CDB7DEB79A83898389819A81092E000CB0
:1006A000AA0BBB0B40E050E028E030E0841B950B28
:1006B0002817390710F40C94290D8A5B9F4FFC0111
:1006C0000C9425188091A401813031F481E090E0F0
:1006D0009A8389830C94370D1A8219820C94370DF2
:1006E0008091A3018330D9F581E090E09A838983DA
:1006F00020916201309163018091640190916501C4
:10070000220F331F220F331F220F331F820F931F1D
:100710008E5E9E4FFC01108282E090E09093630118
:100720008093620185E090E090936501809364017D
:100730002091620130916301809164019091650183
:10074000220F331F220F331F220F331F820F931FDD
:100750008E5E9E4F21E0FC0120830C942C0D209195
:10076000620130916301809164019091650101976C
:10077000220F331F220F331F220F331F820F931FAD
:100780008E5E9E4FFC018081813059F48091620120
:1007900090916301892B29F486E090E09A83898304
:1007A00039C120916201309163018091640190917F
:1007B00065010197220F331F220F331F220F331FB2
:1007C000820F931F8E5E9E4FFC018081813059F411
:1007D0008091620190916301049729F485E090E093
:1007E0009A83898317C120916201309163018091BE
:1007F0006401909165010197220F331F220F331F6F
:10080000220F331F820F931F8E5E9E4FFC0180814B
:100810008130C9F580916201909163019C01215062
:10082000310980916401909165010197220F331F76
:10083000220F331F220F331F820F931F8E5E9E4F96
:10084000FC0180818130F9F4809162019091630113
:100850009C012F5F3F4F809164019091650101974A
:10086000220F331F220F331F220F331F820F931FBC
:100870008E5E9E4FFC018081813029F482E090E001
:100880009A838983C7C0209162013091630180916E
:100890006401909165010197220F331F220F331FCE
:1008A000220F331F820F931F8E5E9E4FFC018081AB
:1008B0008130C9F580916201909163019C012F5FA5
:1008C0003F4F80916401909165010197220F331F82
:1008D000220F331F220F331F820F931F8E5E9E4FF6
:1008E000FC0180818130F9F4809162019091630173
:1008F0009C012E5F3F4F80916401909165010197AB
:10090000220F331F220F331F220F331F820F931F1B
:100910008E5E9E4FFC018081813029F485E090E05D
:100920009A83898377C0209162013091630180911D
:100930006401909165010197220F331F220F331F2D
:10094000220F331F820F931F8E5E9E4FFC0180810A
:100950008130C9F580916201909163019C01215021
:10096000310980916401909165010197220F331F35
:10097000220F331F220F331F820F931F8E5E9E4F55
:10098000FC0180818130F9F48091620190916301D2
:100990009C01225031098091640190916501019779
:1009A000220F331F220F331F220F331F820F931F7B
:1009B0008E5E9E4FFC018081813029F486E090E0BC
:1009C0009A83898327C020916201309163018091CD
:1009D0006401909165010197220F331F220F331F8D
:1009E000220F331F820F931F8E5E9E4FFC0180816A
:1009F000882311F00C942C0D809164019091650175
:100A0000019711F00C942C0D88E090E09A83898373
:100A10000C942C0D0C942C0D8091A3018330D9F5EE
:100A200081E090E09A838983209162013091630193
:100A30008091640190916501220F331F220F331FB3
:100A4000220F331F820F931F8E5E9E4FFC01108278
:100A500082E090E0909363018093620185E090E0F2
:100A6000909365018093640120916201309163014C
:100A70008091640190916501220F331F220F331F73
:100A8000220F331F820F931F8E5E9E4F21E0FC01C9
:100A900020830C942E0D209162013091630180918E
:100AA0006401909165010197220F331F220F331FBC
:100AB000220F331F820F931F8E5E9E4FFC01808199
:100AC000813059F48091620190916301892B29F45E
:100AD00086E090E09A83898323C18091620190919E
:100AE0006301892B31F484E090E09A8389830C942C
:100AF0002E0D2091620130916301809164019091EB
:100B000065010197220F331F220F331F220F331F5E
:100B1000820F931F8E5E9E4FFC0180818130C9F54C
:100B200080916201909163019C0121503109809173
:100B30006401909165010197220F331F220F331F2B
:100B4000220F331F820F931F8E5E9E4FFC01808108
:100B50008130F9F480916201909163019C012F5FD3
:100B60003F4F80916401909165010197220F331FDF
:100B7000220F331F220F331F820F931F8E5E9E4F53
:100B8000FC018081813029F482E090E09A8389839E
:100B9000C7C02091620130916301809164019091FE
:100BA00065010197220F331F220F331F220F331FBE
:100BB000820F931F8E5E9E4FFC0180818130C9F5AC
:100BC00080916201909163019C012F5F3F4F809162
:100BD0006401909165010197220F331F220F331F8B
:100BE000220F331F820F931F8E5E9E4FFC01808168
:100BF0008130F9F480916201909163019C012E5F34
:100C00003F4F80916401909165010197220F331F3E
:100C1000220F331F220F331F820F931F8E5E9E4FB2
:100C2000FC018081813029F485E090E09A838983FA
:100C300077C02091620130916301809164019091AD
:100C400065010197220F331F220F331F220F331F1D
:100C5000820F931F8E5E9E4FFC0180818130C9F50B
:100C600080916201909163019C0121503109809132
:100C70006401909165010197220F331F220F331FEA
:100C8000220F331F820F931F8E5E9E4FFC018081C7
:100C90008130F9F480916201909163019C012250AE
:100CA000310980916401909165010197220F331FF2
:100CB000220F331F220F331F820F931F8E5E9E4F12
:100CC000FC018081813029F486E090E09A83898359
:100CD00027C080916201909163019C0121503109EC
:100CE00080916401909165010197220F331F220FBB
:100CF000331F220F331F820F931F8E5E9E4FFC0106
:100D00008081882309F0AAC68091640190916501D1
:100D1000019709F0A3C688E090E09A8389839EC674
:100D20009DC68091A3018330D1F581E090E09A8344
:100D300089832091620130916301809164019091D7
:100D40006501220F331F220F331F220F331F820F23
:100D5000931F8E5E9E4FFC01108282E090E0909384
:100D600063018093620185E090E090936501809338
:100D7000640120916201309163018091640190913E
:100D80006501220F331F220F331F220F331F820FE3
:100D9000931F8E5E9E4F21E0FC01208361C620914F
:100DA0006201309163018091640190916501019726
:100DB000220F331F220F331F220F331F820F931F67
:100DC0008E5E9E4FFC018081813059F480916201DA
:100DD00090916301049729F485E090E09A838983D8
:100DE00022C18091620190916301049729F483E00C
:100DF00090E09A83898334C6209162013091630127
:100E000080916401909165010197220F331F220F99
:100E1000331F220F331F820F931F8E5E9E4FFC01E4
:100E200080818130C9F580916201909163019C01BC
:100E30002150310980916401909165010197220F41
:100E4000331F220F331F220F331F820F931F8E5E1B
:100E50009E4FFC0180818130F9F480916201909174
:100E600063019C012F5F3F4F809164019091650168
:100E70000197220F331F220F331F220F331F820FC0
:100E8000931F8E5E9E4FFC018081813029F482E0A9
:100E900090E09A838983C7C02091620130916301F9
:100EA00080916401909165010197220F331F220FF9
:100EB000331F220F331F820F931F8E5E9E4FFC0144
:100EC00080818130C9F580916201909163019C011C
:100ED0002F5F3F4F80916401909165010197220F30
:100EE000331F220F331F220F331F820F931F8E5E7B
:100EF0009E4FFC0180818130F9F4809162019091D4
:100F000063019C012E5F3F4F8091640190916501C8
:100F10000197220F331F220F331F220F331F820F1F
:100F2000931F8E5E9E4FFC018081813029F485E005
:100F300090E09A83898377C02091620130916301A8
:100F400080916401909165010197220F331F220F58
:100F5000331F220F331F820F931F8E5E9E4FFC01A3
:100F600080818130C9F580916201909163019C017B
:100F70002150310980916401909165010197220F00
:100F8000331F220F331F220F331F820F931F8E5EDA
:100F90009E4FFC0180818130F9F480916201909133
:100FA00063019C0122503109809164019091650197
:100FB0000197220F331F220F331F220F331F820F7F
:100FC000931F8E5E9E4FFC018081813029F486E064
:100FD00090E09A83898327C0809162019091630198
:100FE0009C012F5F3F4F80916401909165010197B3
:100FF000220F331F220F331F220F331F820F931F25
:101000008E5E9E4FFC018081882309F029C5809166
:10101000640190916501019709F022C588E090E094
:101020009A8389831DC51CC58091A3018330D1F5A6
:1010300081E090E09A83898320916201309163017D
:101040008091640190916501220F331F220F331F9D
:10105000220F331F820F931F8E5E9E4FFC01108262
:1010600082E090E0909363018093620185E090E0DC
:101070009093650180936401209162013091630136
:101080008091640190916501220F331F220F331F5D
:10109000220F331F820F931F8E5E9E4F21E0FC01B3
:1010A0002083E0C42091620130916301809164014A
:1010B000909165010196220F331F220F331F220FDB
:1010C000331F820F931F8E5E9E4FFC018081813003
:1010D00059F48091620190916301892B29F484E095
:1010E00090E09A83898336C1209162013091630137
:1010F00080916401909165010196220F331F220FA8
:10110000331F220F331F820F931F8E5E9E4FFC01F1
:101110008081813059F4809162019091630104973C
:1011200029F483E090E09A83898314C120916201BD
:101130003091630180916401909165010196220FC5
:10114000331F220F331F220F331F820F931F8E5E18
:101150009E4FFC0180818130C9F5809162019091A0
:1011600063019C01215031098091640190916501D6
:101170000196220F331F220F331F220F331F820FBE
:10118000931F8E5E9E4FFC0180818130F9F4809127
:101190006201909163019C012F5F3F4F8091640138
:1011A000909165010196220F331F220F331F220FEA
:1011B000331F820F931F8E5E9E4FFC018081813012
:1011C00029F481E090E09A838983C4C02091620170
:1011D0003091630180916401909165010196220F25
:1011E000331F220F331F220F331F820F931F8E5E78
:1011F0009E4FFC0180818130C9F580916201909100
:1012000063019C012F5F3F4F8091640190916501C4
:101210000196220F331F220F331F220F331F820F1D
:10122000931F8E5E9E4FFC0180818130F9F4809186
:101230006201909163019C012E5F3F4F8091640198
:10124000909165010196220F331F220F331F220F49
:10125000331F820F931F8E5E9E4FFC018081813071
:1012600029F483E090E09A83898374C0209162011D
:101270003091630180916401909165010196220F84
:10128000331F220F331F220F331F820F931F8E5ED7
:101290009E4FFC0180818130C9F58091620190915F
:1012A00063019C0121503109809164019091650195
:1012B0000196220F331F220F331F220F331F820F7D
:1012C000931F8E5E9E4FFC0180818130F9F48091E6
:1012D0006201909163019C01225031098091640167
:1012E000909165010196220F331F220F331F220FA9
:1012F000331F820F931F8E5E9E4FFC0180818130D1
:1013000029F484E090E09A83898324C020916201CB
:101310003091630180916401909165010196220FE3
:10132000331F220F331F220F331F820F931F8E5E36
:101330009E4FFC018081882309F094C38091640151
:1013400090916501069709F08DC387E090E09A833C
:10135000898388C387C38091A3018330D1F581E05D
:1013600090E09A838983209162013091630180919A
:10137000640190916501220F331F220F331F220F4A
:10138000331F820F931F8E5E9E4FFC01108282E0FE
:1013900090E0909363018093620185E090E09093E8
:1013A0006501809364012091620130916301809115
:1013B000640190916501220F331F220F331F220F0A
:1013C000331F820F931F8E5E9E4F21E0FC0120830E
:1013D0004BC320916201309163018091640190912F
:1013E00065010196220F331F220F331F220F331F77
:1013F000820F931F8E5E9E4FFC018081813059F4D5
:101400008091620190916301892B29F484E090E03E
:101410009A83898322C18091620190916301892B13
:1014200029F486E090E09A8389831EC320916201AB
:101430003091630180916401909165010196220FC2
:10144000331F220F331F220F331F820F931F8E5E15
:101450009E4FFC0180818130C9F58091620190919D
:1014600063019C01215031098091640190916501D3
:101470000196220F331F220F331F220F331F820FBB
:10148000931F8E5E9E4FFC0180818130F9F4809124
:101490006201909163019C012F5F3F4F8091640135
:1014A000909165010196220F331F220F331F220FE7
:1014B000331F820F931F8E5E9E4FFC01808181300F
:1014C00029F481E090E09A838983C7C0209162016A
:1014D0003091630180916401909165010196220F22
:1014E000331F220F331F220F331F820F931F8E5E75
:1014F0009E4FFC0180818130C9F5809162019091FD
:1015000063019C012F5F3F4F8091640190916501C1
:101510000196220F331F220F331F220F331F820F1A
:10152000931F8E5E9E4FFC0180818130F9F4809183
:101530006201909163019C012E5F3F4F8091640195
:10154000909165010196220F331F220F331F220F46
:10155000331F820F931F8E5E9E4FFC01808181306E
:1015600029F483E090E09A83898377C02091620117
:101570003091630180916401909165010196220F81
:10158000331F220F331F220F331F820F931F8E5ED4
:101590009E4FFC0180818130C9F58091620190915C
:1015A00063019C0121503109809164019091650192
:1015B0000196220F331F220F331F220F331F820F7A
:1015C000931F8E5E9E4FFC0180818130F9F48091E3
:1015D0006201909163019C01225031098091640164
:1015E000909165010196220F331F220F331F220FA6
:1015F000331F820F931F8E5E9E4FFC0180818130CE
:1016000029F484E090E09A83898327C08091620165
:10161000909163019C012150310980916401909166
:1016200065010196220F331F220F331F220F331F34
:10163000820F931F8E5E9E4FFC018081882309F0EC
:1016400013C28091640190916501069709F00CC264
:1016500087E090E09A83898307C206C28091A30144
:101660008330D1F581E090E09A83898320916201F3
:10167000309163018091640190916501220F331FC5
:10168000220F331F220F331F820F931F8E5E9E4F38
:10169000FC01108282E090E09093630180936201EC
:1016A00085E090E090936501809364012091620150
:1016B000309163018091640190916501220F331F85
:1016C000220F331F220F331F820F931F8E5E9E4FF8
:1016D00021E0FC012083CAC12091620130916301A5
:1016E00080916401909165010196220F331F220FB2
:1016F000331F220F331F820F931F8E5E9E4FFC01FC
:101700008081813059F48091620190916301049746
:1017100029F483E090E09A83898322C18091620159
:1017200090916301049729F485E090E09A8389837E
:101730009DC120916201309163018091640190917B
:1017400065010196220F331F220F331F220F331F13
:10175000820F931F8E5E9E4FFC0180818130C9F500
:1017600080916201909163019C0121503109809127
:101770006401909165010196220F331F220F331FE0
:10178000220F331F820F931F8E5E9E4FFC018081BC
:101790008130F9F480916201909163019C012F5F87
:1017A0003F4F80916401909165010196220F331F94
:1017B000220F331F220F331F820F931F8E5E9E4F07
:1017C000FC018081813029F481E090E09A83898353
:1017D000C7C02091620130916301809164019091B2
:1017E00065010196220F331F220F331F220F331F73
:1017F000820F931F8E5E9E4FFC0180818130C9F560
:1018000080916201909163019C012F5F3F4F809115
:101810006401909165010196220F331F220F331F3F
:10182000220F331F820F931F8E5E9E4FFC0180811B
:101830008130F9F480916201909163019C012E5FE7
:101840003F4F80916401909165010196220F331FF3
:10185000220F331F220F331F820F931F8E5E9E4F66
:10186000FC018081813029F483E090E09A838983B0
:1018700077C0209162013091630180916401909161
:1018800065010196220F331F220F331F220F331FD2
:10189000820F931F8E5E9E4FFC0180818130C9F5BF
:1018A00080916201909163019C01215031098091E6
:1018B0006401909165010196220F331F220F331F9F
:1018C000220F331F820F931F8E5E9E4FFC0180817B
:1018D0008130F9F480916201909163019C01225062
:1018E000310980916401909165010196220F331FA7
:1018F000220F331F220F331F820F931F8E5E9E4FC6
:10190000FC018081813029F484E090E09A8389830E
:1019100027C080916201909163019C012F5F3F4F2E
:1019200080916401909165010196220F331F220F6F
:10193000331F220F331F820F931F8E5E9E4FFC01B9
:101940008081882309F092C08091640190916501A3
:10195000069709F08BC087E090E09A83898386C060
:1019600085C081E090E09A83898320916201309163
:1019700063018091640190916501220F331F220F52
:10198000331F220F331F820F931F8E5E9E4FFC0169
:10199000108282E090E0909363018093620185E081
:1019A00090E09093650180936401209162013091F1
:1019B00063018091640190916501220F331F220F12
:1019C000331F220F331F820F931F8E5E9E4F21E025
:1019D000FC0120831092A7014AC081E090E09A8325
:1019E000898320916201309163018091640190911B
:1019F0006501220F331F220F331F220F331F820F67
:101A0000931F8E5E9E4FFC01108282E090E09093C7
:101A100063018093620185E090E09093650180937B
:101A20006401209162013091630180916401909181
:101A30006501220F331F220F331F220F331F820F26
:101A4000931F8E5E9E4F21E0FC0120831092A70120
:101A50000EC01A8219820BC0000009C0000007C026
:101A6000000005C0000003C0000001C00000898123
:101A70009A81092E000CAA0BBB0B41E050E027E035
:101A800030E0841B950B2817390708F4B3C1815B3C
:101A90009F4FFC010C942518209162013091630145
:101AA0008091640190916501220F331F220F331F33
:101AB000220F331F820F931F8E5E9E4FFC011082F8
:101AC00080916401909165010197909365018093E5
:101AD00064012091620130916301809164019091D1
:101AE0006501220F331F220F331F220F331F820F76
:101AF000931F8E5E9E4F21E0FC01208380C12091C8
:101B00006201309163018091640190916501220F1F
:101B1000331F220F331F220F331F820F931F8E5E3E
:101B20009E4FFC01108280916201909163010197A8
:101B300090936301809362018091640190916501AB
:101B40000197909365018093640120916201309127
:101B500063018091640190916501220F331F220F70
:101B6000331F220F331F820F931F8E5E9E4F21E083
:101B7000FC01208344C12091620130916301809176
:101B8000640190916501220F331F220F331F220F32
:101B9000331F820F931F8E5E9E4FFC011082809137
:101BA00062019091630101969093630180936201B9
:101BB00080916401909165010197909365018093F4
:101BC00064012091620130916301809164019091E0
:101BD0006501220F331F220F331F220F331F820F85
:101BE000931F8E5E9E4F21E0FC01208308C120914F
:101BF0006201309163018091640190916501220F2F
:101C0000331F220F331F220F331F820F931F8E5E4D
:101C10009E4FFC01108280916401909165010196B4
:101C2000909365018093640120916201309163017A
:101C30008091640190916501220F331F220F331FA1
:101C4000220F331F820F931F8E5E9E4F21E0FC01F7
:101C50002083D5C02091620130916301809164019D
:101C600090916501220F331F220F331F220F331F64
:101C7000820F931F8E5E9E4FFC0110828091620145
:101C80009091630101979093630180936201809129
:101C900064019091650101969093650180936401C0
:101CA00020916201309163018091640190916501FE
:101CB000220F331F220F331F220F331F820F931F58
:101CC0008E5E9E4F21E0FC01208399C0209162012D
:101CD000309163018091640190916501220F331F5F
:101CE000220F331F220F331F820F931F8E5E9E4FD2
:101CF000FC011082809162019091630101969093A2
:101D00006301809362018091640190916501019665
:101D10009093650180936401209162013091630189
:101D20008091640190916501220F331F220F331FB0
:101D3000220F331F820F931F8E5E9E4F21E0FC0106
:101D400020835DC08091A5018F5F8093A501809164
:101D5000A501813039F481E080937B0181E080939B
:101D6000A7014AC08091A501823039F481E08093B7
:101D7000830181E08093A7013FC08091A50183305A
:101D8000D9F510927B01109283011092820110927A
:101D90008A011092A5011092A6012EC08091A60181
:101DA0008F5F8093A6018091A601813039F481E094
:101DB0008093820181E08093A70120C08091A601D9
:101DC000823039F481E080938A0181E08093A70119
:101DD00015C08091A601833089F410927B01109286
:101DE00083011092820110928A011092A601109232
:101DF000A50104C0000003C0000001C000008981EB
:101E00009A810F900F90DF91CF910895CF93DF9338
:101E100000D01F92CDB7DEB79B838A830E94CD018D
:101E200089838A819B81092E000CAA0BBB0B40E0A1
:101E300050E026E030E0841B950B2817390708F4A2
:101E4000E9C0895A9F4FFC010C9425188091A40188
:101E5000813049F480916601813029F481E090E07D
:101E60009B838A8310C08091A401813049F48091C2
:101E70006601823029F482E090E09B838A8303C06C
:101E80001B821A82CFC0CEC08091A301833029F477
:101E900081E090E09B838A83C0C00E9479188170A2
:101EA0009078992324F401978E6F9F6F0196019784
:101EB000B9F48091620190916301039728F085E065
:101EC00090E09B838A83A9C0809162019091630115
:101ED000029708F0A2C083E090E09B838A839DC0B4
:101EE00081E090E09B838A8398C08091A301833036
:101EF00029F482E090E09B838A8394C089818134B5
:101F000029F484E090E09B838A838CC089818234A9
:101F100029F486E090E09B838A8384C082E090E08D
:101F20009B838A837FC08091A301833029F481E061
:101F300090E09B838A8373C00E94791881709078A7
:101F4000992324F401978E6F9F6F0196019761F496
:101F50008091620190916301039708F460C081E071
:101F600090E09B838A835BC083E090E09B838A83BD
:101F700056C08091A301833029F482E090E09B83D6
:101F80008A8350C08981823429F482E090E09B8367
:101F90008A8348C084E090E09B838A8343C0809119
:101FA000A301833029F481E090E09B838A8339C0C8
:101FB0000E94791881709078992324F401978E6F8C
:101FC0009F6F0196019759F480916201909163018E
:101FD000029738F581E090E09B838A8322C085E0F8
:101FE00090E09B838A831DC08091A301833029F4F4
:101FF00082E090E09B838A8315C08981813429F433
:1020000082E090E09B838A830DC086E090E09B8312
:102010008A8308C01B821A8205C0000003C000002A
:1020200001C000008A819B818530910534F48330A2
:10203000910534F4019774F11FC007975CF50EC049
:1020400081E08093190181E08093210181E08093F8
:10205000290110923101109239011DC0109219010D
:102060001092210181E08093290181E08093310168
:1020700081E0809339010FC01092190181E08093B3
:10208000210181E08093290181E080933101109248
:10209000390101C000008A819B810F900F900F9041
:1020A000DF91CF910895CF93DF9300D0CDB7DEB706
:1020B0009A83898389819A81009729F09923ECF08A
:1020C0000497DCF415C08091A301813029F481E0EC
:1020D00090E09A83898314C08091A301823029F40F
:1020E00082E090E09A8389830BC01A82198208C02B
:1020F00083E090E09A83898303C01A8219820000EA
:1021000089819A818130910531F08230910551F0B9
:10211000892B79F00FC081E08093A40181E0809346
:10212000660108C081E08093A40182E0809366018B
:1021300001C0000089819A810F900F90DF91CF91AB
:102140000895CF93DF9300D0CDB7DEB79A8389830C
:1021500089819A8182309105C1F0833091052CF4F8
:10216000009749F0019761F01DC08330910591F00F
:102170000497A9F017C081E090E09A83898315C085
:1021800082E090E09A83898310C083E090E09A8394
:1021900089830BC084E090E09A83898306C01A8209
:1021A000198203C01A821982000089819A818230C3
:1021B000910509F435C28330910534F4009761F03C
:1021C000019709F41BC162C58330910509F43AC334
:1021D000049709F449C45AC58091A401882309F0E1
:1021E00058C08BE290E02EE1FC01208388E290E071
:1021F00020913A01422F20913B01222F30E0220F03
:10220000331F422B20913C01222F30E0220F331F3D
:10221000220F331F422B20913D01222F30E0220F4D
:10222000331F220F331F220F331F422B20913E01F9
:10223000222F30E022953295307F3227207F3227BF
:10224000422B20913F01222F30E0220F331F229595
:102250003295307F3227207F3227422B2091400158
:10226000222F30E000243695279507943695279540
:102270000794322F202D422B20914101222F30E054
:102280003695322F222737952795242BFC01208362
:10229000FDC48091A701813009F058C08BE290E025
:1022A0002EE1FC01208388E290E020917B01422F07
:1022B00020917C01222F30E0220F331F422B2091EE
:1022C0007D01222F30E0220F331F220F331F422BBC
:1022D00020917E01222F30E0220F331F220F331F67
:1022E000220F331F422B20917F01222F30E02295B5
:1022F0003295307F3227207F3227422B2091800178
:10230000222F30E0220F331F22953295307F322763
:10231000207F3227422B20918101222F30E00024A0
:10232000369527950794369527950794322F202DBB
:10233000422B20918201222F30E03695322F222726
:1023400037952795242BFC012083A0C48BE290E0D5
:102350002EE1FC01208388E290E020911201422FBF
:1023600020911301222F30E0220F331F422B2091A6
:102370001401222F30E0220F331F220F331F422B74
:1023800020911501222F30E0220F331F220F331F1F
:10239000220F331F422B20911601222F30E022956D
:1023A0003295307F3227207F3227422B2091170130
:1023B000222F30E0220F331F22953295307F3227B3
:1023C000207F3227422B20911801222F30E0002459
:1023D000369527950794369527950794322F202D0B
:1023E000422B20911901222F30E03695322F2227DF
:1023F00037952795242BFC01208348C48091A401A4
:10240000882309F058C08BE290E02DE1FC01208385
:1024100088E290E020914201422F20914301222F37
:1024200030E0220F331F422B20914401222F30E055
:10243000220F331F220F331F422B20914501222FE1
:1024400030E0220F331F220F331F220F331F422B86
:1024500020914601222F30E022953295307F32279D
:10246000207F3227422B20914701222F30E0220F7C
:10247000331F22953295307F3227207F3227422B1F
:1024800020914801222F30E00024369527950794AB
:10249000369527950794322F202D422B2091490104
:1024A000222F30E03695322F222737952795242B7F
:1024B000FC012083EBC38091A701813009F058C053
:1024C0008BE290E02DE1FC01208388E290E02091F6
:1024D0008301422F20918401222F30E0220F331FED
:1024E000422B20918501222F30E0220F331F220F33
:1024F000331F422B20918601222F30E0220F331F01
:10250000220F331F220F331F422B20918701222FCE
:1025100030E022953295307F3227207F3227422BC0
:1025200020918801222F30E0220F331F229532950F
:10253000307F3227207F3227422B20918901222FA2
:1025400030E0002436952795079436952795079413
:10255000322F202D422B20918A01222F30E03695F8
:10256000322F222737952795242BFC0120838EC3F9
:102570008BE290E02DE1FC01208388E290E0209145
:102580001A01422F20911B01222F30E0220F331F0E
:10259000422B20911C01222F30E0220F331F220FEB
:1025A000331F422B20911D01222F30E0220F331FB9
:1025B000220F331F220F331F422B20911E01222F87
:1025C00030E022953295307F3227207F3227422B10
:1025D00020911F01222F30E0220F331F22953295C8
:1025E000307F3227207F3227422B20912001222F5B
:1025F00030E0002436952795079436952795079463
:10260000322F202D422B20912101222F30E03695B0
:10261000322F222737952795242BFC01208336C3A0
:102620008091A401882309F058C08BE290E02BE14F
:10263000FC01208388E290E020914A01422F209102
:102640004B01222F30E0220F331F422B20914C01EF
:10265000222F30E0220F331F220F331F422B2091F5
:102660004D01222F30E0220F331F220F331F220F84
:10267000331F422B20914E01222F30E022953295BC
:10268000307F3227207F3227422B20914F01222F8B
:1026900030E0220F331F22953295307F3227207F82
:1026A0003227422B20915001222F30E00024369512
:1026B00027950794369527950794322F202D422B86
:1026C00020915101222F30E03695322F2227379565
:1026D0002795242BFC012083D9C28091A70181304A
:1026E00009F058C08BE290E02BE1FC01208388E2E6
:1026F00090E020918B01422F20918C01222F30E01D
:10270000220F331F422B20918D01222F30E0220F08
:10271000331F220F331F422B20918E01222F30E0D6
:10272000220F331F220F331F220F331F422B209102
:102730008F01222F30E022953295307F3227207F83
:102740003227422B20919001222F30E0220F331F9D
:1027500022953295307F3227207F3227422B2091DD
:102760009101222F30E00024369527950794369565
:1027700027950794322F202D422B20919201222F52
:1027800030E03695322F222737952795242BFC01F0
:1027900020837CC28BE290E02BE1FC01208388E265
:1027A00090E020912201422F20912301222F30E03E
:1027B000220F331F422B20912401222F30E0220FC1
:1027C000331F220F331F422B20912501222F30E08F
:1027D000220F331F220F331F220F331F422B209152
:1027E0002601222F30E022953295307F3227207F3C
:1027F0003227422B20912701222F30E0220F331F56
:1028000022953295307F3227207F3227422B20912C
:102810002801222F30E0002436952795079436951D
:1028200027950794322F202D422B20912901222F0A
:1028300030E03695322F222737952795242BFC013F
:10284000208324C28091A401882309F058C08BE220
:1028500090E027E1FC01208388E290E02091520182
:10286000422F20915301222F30E0220F331F422BA1
:1028700020915401222F30E0220F331F220F331FEB
:10288000422B20915501222F30E0220F331F220FBF
:10289000331F220F331F422B20915601222F30E08D
:1028A00022953295307F3227207F3227422B20918C
:1028B0005701222F30E0220F331F22953295307FAF
:1028C0003227207F3227422B20915801222F30E0DF
:1028D0000024369527950794369527950794322F2F
:1028E000202D422B20915901222F30E03695322F96
:1028F000222737952795242BFC012083C7C180917F
:10290000A701813009F058C08BE290E027E1FC017B
:10291000208388E290E020919301422F209194013E
:10292000222F30E0220F331F422B20919501222FBE
:1029300030E0220F331F220F331F422B20919601CC
:10294000222F30E0220F331F220F331F220F331F9D
:10295000422B20919701222F30E022953295307F33
:102960003227207F3227422B20919801222F30E0FE
:10297000220F331F22953295307F3227207F322756
:10298000422B20919901222F30E000243695279583
:102990000794369527950794322F202D422B2091AE
:1029A0009A01222F30E03695322F2227379527952E
:1029B000242BFC0120836AC18BE290E027E1FC011B
:1029C000208388E290E020912A01422F20912B0160
:1029D000222F30E0220F331F422B20912C01222F77
:1029E00030E0220F331F220F331F422B20912D0185
:1029F000222F30E0220F331F220F331F220F331FED
:102A0000422B20912E01222F30E022953295307FEB
:102A10003227207F3227422B20912F01222F30E0B6
:102A2000220F331F22953295307F3227207F3227A5
:102A3000422B20913001222F30E00024369527953B
:102A40000794369527950794322F202D422B2091FD
:102A50003101222F30E03695322F222737952795E6
:102A6000242BFC01208312C18091A401882309F04A
:102A700058C08BE290E02FE0FC01208388E290E0D8
:102A800020915A01422F20915B01222F30E0220F2A
:102A9000331F422B20915C01222F30E0220F331F85
:102AA000220F331F422B20915D01222F30E0220F95
:102AB000331F220F331F220F331F422B20915E0141
:102AC000222F30E022953295307F3227207F322727
:102AD000422B20915F01222F30E0220F331F2295DD
:102AE0003295307F3227207F3227422B20916001A0
:102AF000222F30E0002436952795079436952795A8
:102B00000794322F202D422B20916101222F30E09B
:102B10003695322F222737952795242BFC012083C9
:102B2000B4C08091A701813009F058C08BE290E0D9
:102B30002FE0FC01208388E290E020919B01422F4E
:102B400020919C01222F30E0220F331F422B209135
:102B50009D01222F30E0220F331F220F331F422B03
:102B600020919E01222F30E0220F331F220F331FAE
:102B7000220F331F422B20919F01222F30E02295FC
:102B80003295307F3227207F3227422B2091A001BF
:102B9000222F30E0220F331F22953295307F3227CB
:102BA000207F3227422B2091A101222F30E00024E8
:102BB000369527950794369527950794322F202D23
:102BC000422B2091A201222F30E03695322F22276E
:102BD00037952795242BFC01208357C08BE290E08A
:102BE0002FE0FC01208388E290E020913201422F07
:102BF00020913301222F30E0220F331F422B2091EE
:102C00003401222F30E0220F331F220F331F422BBB
:102C100020913501222F30E0220F331F220F331F66
:102C2000220F331F422B20913601222F30E02295B4
:102C30003295307F3227207F3227422B2091370177
:102C4000222F30E0220F331F22953295307F32271A
:102C5000207F3227422B20913801222F30E00024A0
:102C6000369527950794369527950794322F202D72
:102C7000422B20913901222F30E03695322F222726
:102C800037952795242BFC012083000089819A81A8
:102C90000F900F90DF91CF9108950F931F93CF93D3
:102CA000DF93CDB7DEB72E970FB6F894DEBF0FBE19
:102CB000CDBF87E290E02FEFFC01208388E290E017
:102CC000FC0110828AE290E02FEFFC0120838BE26E
:102CD00090E0FC01108281E290E0FC01108282E22F
:102CE00090E02FEFFC01208384E290E020EFFC01D4
:102CF000208385E290E02FE0FC0120838AE0EBE670
:102D0000F1E0DE01159601900D928A95E1F785E0DC
:102D100090E09B838A838FEF8C838C818093A801C2
:102D200084E690E0A0E0B0E08093A9019093AA012E
:102D3000A093AB01B093AC018091A9019091AA013D
:102D4000A091AB01B091AC018093AD019093AE0125
:102D5000A093AF01B093B0018DE992E09093B201DE
:102D60008093B1018C818093B3018CEB92E0A0E061
:102D7000B0E08093B4019093B501A093B601B093F5
:102D8000B7018091B4019091B501A091B601B091C5
:102D9000B7018093B8019093B901A093BA01B093A1
:102DA000BB0185E493E09093BD018093BC018C81CD
:102DB0008093BE018CEB92E0A0E0B0E08093BF0175
:102DC0009093C001A093C101B093C2018091BF0153
:102DD0009091C001A091C101B091C2018093C30143
:102DE0009093C401A093C501B093C60186E09FE013
:102DF0009093C8018093C7018C818093C90181E0C1
:102E000090E0A0E0B0E08093CA019093CB01A09342
:102E1000CC01B093CD018091CA019091CB01A091DA
:102E2000CC01B091CD018093CE019093CF01A093BE
:102E3000D001B093D10181EA90E19093D3018093C6
:102E4000D2018C818093D40184E690E0A0E0B0E0D0
:102E50008093D5019093D601A093D701B093D80168
:102E60008091D5019091D601A091D701B091D80160
:102E70008093D9019093DA01A093DB01B093DC0138
:102E800083E590E19093DE018093DD0161E070E0E5
:102E900080E090E00E94A8000E94D60080E090E0D0
:102EA0000E941218DC01CB010E947D18198280E279
:102EB00090E0FC01808180958093A3011982A1C0DC
:102EC0008981882F90E0880F991F9E012F5F3F4FC7
:102ED000820F931F0496FC0180819181FC01258162
:102EE0003681478150858981882F90E0880F991F0E
:102EF000BE016F5F7F4F860F971F0496FC01808194
:102F00009181FC0181819281A381B48128173907C5
:102F10004A075B0708F449C08981882F90E0880F31
:102F2000991F9E012F5F3F4F820F931F0496FC0154
:102F3000008111818981882F90E0880F991F9E015F
:102F40002F5F3F4F820F931F0496FC018081918178
:102F5000FC01218532858981882F90E0880F991F97
:102F6000AE014F5F5F4F840F951F0496FC01808177
:102F70009181FC018081082E000C990BF9010995C3
:102F8000F80180838981882F90E0880F991F9E0126
:102F90002F5F3F4F820F931F0496FC018081918128
:102FA000FC0115821682178210868981882F90E095
:102FB000880F991F9E012F5F3F4F820F931F04962A
:102FC000FC01208131818981882F90E0880F991F31
:102FD000AE014F5F5F4F840F951F0496FC01808107
:102FE0009181FC0185819681A781B0850196A11D03
:102FF000B11DF90185839683A783B08789818F5F8F
:1030000089838981282F30E08A819B81281739079D
:1030100008F456CF0000809176018823E1F31092E6
:10302000760145CFFC010FB6F8946091DF017091F5
:10303000E0018091E1019091E2010FBE309721F013
:1030400060837183828393830895EE0FFF1F0024B2
:10305000001C0BBE0790F691E02D09948F929F9271
:10306000AF92BF92CF92DF92EF92FF92CF93DF9316
:10307000EC01688179818A819B81611571058105E7
:10308000910521F464E279ED8BE597E02DE133EFD2
:1030900041E050E00E94881849015A019B01AC01AF
:1030A000A7EAB1E40E94A7186B017C01ACEEB4EF73
:1030B000A50194010E94B518DC01CB018C0D9D1D6A
:1030C000AE1DBF1DB7FF03C00197A109B04888839B
:1030D0009983AA83BB839F77DF91CF91FF90EF9075
:1030E000DF90CF90BF90AF909F908F9008950C94F9
:1030F0002E1887E691E00C942E18A0E0B0E08093A3
:10310000670190936801A0936901B0936A010895E3
:10311000052E97FB1EF400940E949F1857FD07D0C0
:103120000E94BA1807FC03D04EF40C949F185095D7
:103130004095309521953F4F4F4F5F4F08959095A3
:103140008095709561957F4F8F4F9F4F08950E9496
:10315000DC18A59F900DB49F900DA49F800D911D2C
:1031600011240895B7FF0C94A7180E94A718821B7A
:10317000930B0895A1E21A2EAA1BBB1BFD010DC0E3
:10318000AA1FBB1FEE1FFF1FA217B307E407F50717
:1031900020F0A21BB30BE40BF50B661F771F881FF3
:1031A000991F1A9469F760957095809590959B0189
:1031B000AC01BD01CF010895A29FB001B39FC00132
:1031C000A39F700D811D1124911DB29F700D811D53
:0A31D0001124911D0895F894FFCF1B
:1031DA0000000002000000007F0000000000010063
:1031EA0000000000000000000000010000000000D4
:1031FA0000010100000000010001010000000000C0
:10320A0000010000000000000000000000000001B2
:10321A0000000000010001010100000000000000A0
:10322A00000000010100010101000000000000018E
:10323A000000020005000101000000A801B301BE60
:06324A0001C901D40100DE
:00000001FF
